S123000010CE3E80CE3A987E014E3440327FE75FF6E000C4025D260220F6E65FF7E00132E2
S12300206135C03440F6E000C4015D260220F6F6E00135C03460327EAF5E6DD8FE270F31F5
S12300405EAEA4E6843001AFA4BD000A20EC326235E03440327F6F5F7FE0E0C601F7E0E0D2
S123006020F63440327C8E0000AF5EAE5E8C00FF2229EC5EF7E1418E0000AF5CAE5C8C0035
S1230080FF2210AE5C3089E2006F84AE5C3001AF5C20E9AE5E3001AF5E20D0326435C0344B
S12300A04035C03440327FE75FE65FF7E0F0326135C03460327EAF5E6DD8FE270F315EAE01
S12300C0A4E6843001AFA4BD00A320EC326235E00000002001000020020000200D000030D5
S12300E0150000300000010005C0000001000030020000300000020009C001000080020040
S123010000C002000C8001003440327C7FE1416F5FE65FC137221CE65F4F1F01E68900D08D
S1230120E75EE65F4FED5CE65EAE5CE789E2006C5F20DEC6FFF7E141C6FFF7E2FCC67FF77C
S1230140E2FDC603F7E2FE7FE2FF326435C03440C601F7E140BD0108C602F7E140BD005229
S10601605F35C044
S9030000FC
